:020000040800F2
:10000000685A0020DD010008CB2700085D240008A5
:10001000C927000801040008A12F00080000000003
:100020000000000000000000000000004501000882
:10003000450800080000000089010008A129000807
:10004000F7010008F7010008F7010008F7010008B0
:10005000F7010008F7010008F7010008F7010008A0
:10006000F7010008F7010008F7010008F701000890
:10007000F7010008F7010008210700082D07000814
:100080003907000845070008F7010008F7010008D4
:10009000F7010008F7010008F7010008F701000860
:1000A000F70100087D2A0008F7010008F7010008A1
:1000B000F7010008F7010008F7010008F701000840
:1000C000F7010008F7010008F7010008F701000830
:1000D000F7010008012F0008512F0008F701000860
:1000E000F7010008F7010008F7010008F701000810
:1000F000F7010008F7010008F7010008F701000800
:10010000F7010008F7010008F7010008F7010008EF
:10011000152B0008F7010008F7010008F701000897
:10012000F7010008F7010008510700085D07000803
:10013000DFF80CD000F09AF8004800470D310008B5
:10014000685A0020224B19680868B0E8F00F80F365
:100150000988BFF36F8F4FF0000080F311884EF0D5
:100160000D0E70470000000006480068006880F32C
:10017000088862B661B6BFF34F8FBFF36F8F00DFA1
:1001800000BF00BF08ED00E0EFF30980BFF36F8F01
:100190000F4B1A6820E9F00F106008B54FF05000BF
:1001A00080F31188BFF34F8FBFF36F8F03F064FFAD
:1001B0004FF0000080F31188BDE808401968086816
:1001C000B0E8F00F80F30988BFF36F8F704700BF6E
:1001D0004C000020EFF30580704700000648804780
:1001E00006480047FEE7FEE7FEE7FEE7FEE7FEE71C
:1001F000FEE7FEE7FEE7FEE7352A000831010008CA
:1002000040EA01039B0703D009E008C9121F08C098
:10021000042AFAD203E011F8013B00F8013B521E18
:10022000F9D27047D2B201E000F8012B491EFBD28F
:1002300070470022F6E710B513460A4604461946F1
:10024000FFF7F0FF204610BD30B505462A460B46A5
:1002500012F8010B13F8014B08B1A042F8D01CB101
:10026000002802D06D1CF1E7284630BD064C074D32
:1002700006E0E06840F0010394E807009847103476
:10028000AC42F6D3FFF758FFC44A0008E44A00081E
:100290002DE9F04120A002F085FE322002F053FF4C
:1002A000254801784FF4807659B30021017023A1CD
:1002B0002348FFF7C9FF234C234D4EF660276060AB
:1002C00016E000BF00F01EFA32461D491F4802F03A
:1002D00019F811A002F066FE322002F034FF17A1D7
:1002E0001748FFF7B1FF606030B1286802F0A8FF3F
:1002F00060680028E6D006E03946286802F072FF00
:10030000F6E700F0AFFF00F0FDF93246BDE8F0413E
:100310000B490E4801F0F6BF41542B514943534756
:10032000503D312C312C22434D4E4554222C22225B
:100330002C22222C300D0A00250000204F4B0000FB
:100340003C0100203000002000000020BC02002002
:100350002DE9F04120A002F025FE322002F0F3FE4C
:10036000214801784FF4807659B3002101701FA114
:100370001F48FFF769FF1F4C1F4D4EF66027606056
:1003800016E000BF00F0BEF9324619491B4801F0E3
:10039000B9FF11A002F006FE322002F0D4FE13A134
:1003A0001348FFF751FF606030B1286802F048FF42
:1003B00060680028E6D006E03946286802F012FF9F
:1003C000F6E700F04FFF00F09DF93246BDE8F0413E
:1003D00007490A4801F096BF41542B514941435403
:1003E0003D310D0A00000000250000204F4B0000A9
:1003F0003C0100203000002000000020BC02002052
:10040000FEE770477047704770B524A002F0CAFD40
:10041000322002F098FE24480178002932D00021D1
:10042000017022A12448FFF70FFF244C24A1606033
:100430002148FFF709FF254D44F62066A06017E02C
:1004400000F060F915A002F0ADFD322002F07BFE55
:1004500016A11948FFF7F8FE606019A11648FFF7CA
:10046000F3FEA0606168014307D0286802F0E8FE4F
:10047000D4E901010843E3D006E03146286802F0E0
:10048000B1FEF5E700F0EEFE00F03CF9BDE870408B
:100490004FF4807208490E4801F034BF41542B4399
:1004A000475245473F0D0A00250000202B43475285
:1004B00045473A20302C31003C010020300000201C
:1004C0002B43475245473A20302C3500000000208E
:1004D000BC02002070B524A002F064FD322002F0BE
:1004E00032FE24480178002932D00021017022A177
:1004F0002448FFF7A9FE244C24A160602148FFF79F
:10050000A3FE254D4EF66026A06017E000F0FAF835
:1005100015A002F047FD322002F015FE16A1194881
:10052000FFF792FE606019A11648FFF78DFEA060EC
:100530006168014307D0286802F082FED4E9010116
:100540000843E3D006E03146286802F04BFEF5E7A9
:1005500000F088FE00F0D6F8BDE870404FF48072DD
:1005600008490E4801F0CEBE41542B435245473F47
:100570000D0A0000250000202B435245473A203049
:100580002C3100003C010020300000202B4352455C
:10059000473A20302C35000000000020BC0200202B
:1005A0002DE9F04120A002F0FDFC322002F0CBFD4D
:1005B000204801784FF4807659B3002101701EA1C4
:1005C0002148FFF741FE214C214D4EF66027606027
:1005D00016E000BF00F096F832461B491D4801F0B6
:1005E00091FE11A002F0DEFC322002F0ACFD12A15F
:1005F0001548FFF729FE606030B1286802F020FE40
:1006000060680028E6D006E03946286802F0EAFD76
:10061000F6E700F027FE00F075F83246BDE8F0413D
:1006200009490C4801F06EBE41542B4350494E3FDE
:100630000D0A0000250000202B4350494E3A20525D
:1006400045414459000000003C01002030000020DA
:1006500000000020BC0200202DE9F04120A002F0A3
:10066000A1FC322002F06FFD1F4801784FF4807624
:1006700059B3002101701DA11D48FFF7E5FD1D4C78
:100680001D4D4EF66027606016E000BF00F03AF89E
:1006900032461749194801F035FE11A002F082FCDC
:1006A000322002F050FD16A11148FFF7CDFD606029
:1006B00030B1286802F0C4FD60680028E6D006E08A
:1006C0003946286802F08EFDF6E700F0CBFD00F019
:1006D00019F83246BDE8F0410549084801F012BE5C
:1006E00041540D0A0000000025000020524459002A
:1006F0003C0100203000002000000020BC0200204F
:100700004F4B000010B54FF480710348FFF791FD87
:1007100002490020088010BD3C0100202A00002072
:10072000014800F04FBA0000C8030020014800F063
:1007300049BA000084030020014800F043BA0000D9
:100740000C040020014800F03DBA000050040020D5
:10075000014800F037BA0000FC020020014800F018
:1007600031BA00004003002030B590F84050012419
:10077000AC40C56B6C60046863604368102B036811
:1007800003D099600068C26030BD9A600068C160A3
:1007900030BD00002DE9F04120A002F003FC322022
:1007A00002F0D1FC214801784FF4807659B3002142
:1007B00001701FA11F48FFF747FD1F4C1F4D4EF64C
:1007C0006027606016E000BFFFF79CFF32461949C2
:1007D0001B4801F097FD11A002F0E4FB322002F06B
:1007E000B2FC13A11348FFF72FFD606030B12868F9
:1007F00002F026FD60680028E6D006E03946286849
:1008000002F0F0FCF6E700F02DFDFFF77BFF32462B
:10081000BDE8F04107490A4801F074BD41542B512D
:100820004944454143543D310D0A00002500002054
:100830004F4B00003C010020300000200000002051
:10084000BC0200207047000010B5FFF705FF3BA079
:1008500002F0A8FB322002F076FCFFF753FF39A02C
:1008600002F0A0FB322002F06EFCFFF74BFF38A035
:1008700002F098FB322002F066FCFFF743FFFFF71F
:100880008FFEFFF727FEFFF7BFFD33A002F08AFBC4
:10089000322002F058FCFFF735FF32A002F082FB55
:1008A000322002F050FCFFF72DFFFFF7F1FCFFF7BD
:1008B00071FFFFF74DFD2FA002F074FB322002F014
:1008C00042FCFFF71FFF2EA002F06CFB322002F06B
:1008D0003AFC37A13A48FFF7B7FC3A4C606008E0B1
:1008E00033A13748FFF7B0FC60600A2002F02BFC10
:1008F00060680028F4D0322002F025FCFFF702FFE8
:1009000031A002F04FFB322002F01DFC3BA12C482D
:10091000FFF79AFC606008E038A12948FFF794FCD3
:1009200060600A2002F00FFC60680028F4D03220DA
:1009300002F009FCBDE81040FFF7E4BE4154453029
:100940000D0A000041542B4353510D0A00000000D2
:100950004154490D0A00000041542B434F50533F6E
:100960000D0A000041542B5149434C4F53453D3033
:100970000D0A000041542B51494143543F0D0A00D8
:1009800041542B51494F50454E3D312C302C22546F
:100990004350222C223130332E34362E3132382E31
:1009A0003439222C32383138302C302C310D0A00B9
:1009B0002B51494F50454E3A20302C30000000005A
:1009C0003C0100203000002041542B51494F50453C
:1009D0004E3D312C312C22544350222C22313134C3
:1009E0002E3131352E3134382E313732222C313000
:1009F0003030302C302C310D0A0000002B51494F83
:100A000050454E3A20312C300000000070B50122D4
:100A1000074DD4032146284600F062FB962002F0E1
:100A200092FB21462846BDE87040002200F058BBEA
:100A3000000C014070B50122084D140321462846E0
:100A400000F04EFB4FF4C87002F07DFB21462846B3
:100A5000BDE87040002200F043BB000000080140E8
:100A6000704701680A6822F00E020A6001680A688D
:100A700022F001020A6090F84020C36B012101FAC4
:100A800002F25A6080F82110002180F820100846F8
:100A9000704700002DE9F05F90F821100024022932
:100AA00003D004218163012485E001680A6822F0F3
:100AB0000E020A6001680A6822F001020A603F4ED5
:100AC0003E4FB215DFF8F4C0DFF8F090DFF8ECA08D
:100AD000DFF8E8B0DFF8E4E00168783F13011502C1
:100AE000ACF1640CA9F15009AAF13C0AABF1280B56
:100AF000AEF1140E4FF48018B14227D9B9420ED08E
:100B0000614512D049451DD0514518D0594518D0DE
:100B1000714501D1424615E0294EB14201D1012271
:100B200010E0274E1436B14201D110220AE0244EC3
:100B30002836B14206D0224A3C32914201D11A46AF
:100B400000E02A461E49091F0A602BE0B94213D073
:100B5000614517D0494522D051451DD059451DD07A
:100B6000714501D142461AE0B14202D14FF0807284
:100B700015E0134EB14201D1012210E0104E14369F
:100B8000B14201D110220AE00D4E2836B14206D002
:100B90000B4A3C32914201D11A4600E02A460749ED
:100BA00080394A60012180F82110002180F820104E
:100BB000416B01B188472046BDE8F09F80000240AC
:100BC000080402402DE9F05FC16B0A6801680B68F8
:100BD000046C4FF0040808FA04F8844D844E854FE5
:100BE000DFF814C2DFF81492DFF814A2DFF814B2B1
:100BF000DFF814E218EA020F65D05FEA437862D5A5
:100C00000A68920603D40A6822F004020A60DFF838
:100C1000F0814FF48062016808F114081301140296
:100C2000414524D9A9420DD0B1420FD0B9421AD0C2
:100C3000614515D0494515D0514501D1120312E047
:100C4000594501D104220EE0714501D140220AE04C
:100C50006D4D1435A94206D06B4A2832914201D11C
:100C60001A4600E022466749091F0A6029E0A942A6
:100C700013D0B14215D0B94220D061451BD04945AF
:100C80001BD0514502D14FF4800217E0414502D1FB
:100C90004FF0806212E0594501D104220EE0714507
:100CA00001D140220AE0584D1435A94206D0564AD7
:100CB0002832914201D11A4600E022464B490839B8
:100CC0004A60C16A71E04FF0020808FA04F818EAB5
:100CD000020F70D05FEA83786DD50A68920606D459
:100CE0000A6822F00A020A60012180F82110DFF868
:100CF00010814FF40072016808F114081301140206
:100D0000414524D9A9420DD0B1420FD0B9421AD0E1
:100D1000614515D0494515D0514501D1120312E066
:100D2000594501D102220EE0714501D120220AE08D
:100D3000354D1435A94206D0334A2832914201D1AB
:100D40001A4600E022462F49091F0A6029E0A942FD
:100D500013D0B14215D0B94220D061451BD04945CE
:100D60001BD0514502D14FF4001217E0414502D18A
:100D70004FF0007212E0594501D102220EE0714598
:100D800001D120220AE0204D1435A94206D01E4A86
:100D90002832914201D11A4600E02246134908390F
:100DA0004A60002180F82010816A00291CD0BDE82B
:100DB000F05F0847FFE70825A540154214D01A0741
:100DC00012D50A6822F00E020A6090F84020C36B28
:100DD000012101FA02F25A60816380F8211000219A
:100DE00080F82010016BE0E7BDE8F09F08000240AA
:100DF0001C00024030000240440002405800024003
:100E00006C000240080402401C04024030B560B18E
:100E10001A4B026814219A4209D2194B1344B3FBAE
:100E2000F1F18900016417490AE0012030BD134B3C
:100E30005B421344B3FBF1F1890001640F490839A7
:100E4000C163022180F82110136843F6F0718B43CF
:100E5000F0E901142143D0E902452C432143046900
:100E600021434469214384692143194311600021CE
:100E70004163012242770177084630BD08040240F1
:100E8000F8FFFDBF0000024070B5044690F8200056
:100E9000002501280CD0012084F8200094F821605E
:100EA0000020012E06D084F820000225284670BDBF
:100EB000022070BD022684F82160A06320680668C5
:100EC00026F0010606602046FFF74EFCE06A002887
:100ED0002068016802D041F00E0106E021F0040113
:100EE00001602068016841F00A0101602068016822
:100EF00041F001010160D9E72DE9F84FDFF8B8A111
:100F000000220AF1040B144601274FF00F090BF1E0
:100F1000040E00BF0B6807FA04F52B40AB4274D1F6
:100F2000DFF898C14E68A6EB0C0866452BD00DDCA7
:100F3000032E34D005DC36B3012E19D0022E2FD16A
:100F40001BE0112E16D0122E2AD119E0B8F5881FF9
:100F500019D006DCB8F5803F15D0B8F5801F1FD139
:100F600011E0B8F5001F0ED0B8F5041F18D10AE043
:100F7000CA6815E0CA68121D12E0CA6808320FE09C
:100F8000CA680C320CE08A682AB1012A4FF00802C4
:100F900003D0456104E0042202E0056100E0002284
:100FA000FF2B01D8064601E000F104064FEA840554
:100FB00001D9A5F12005D6F800C009FA05F82CEAF8
:100FC000080C02FA05F54CEA050CC6F800C04D689D
:100FD000ED006AD53A4DAE6946F00106AE61AD69E5
:100FE00024F0030605F001050095364D06EB050CCF
:100FF000DCF80850A6074FEA167809FA08F6B54358
:10100000314EB04202D100261AE04EE02F4EB042DF
:1010100001D1012614E02E4EB04201D102260FE08C
:101020002C4EB04201D103260AE02B4EB04201D132
:10103000042605E0294EB04201D1052600E006262F
:1010400006FA08F62E43CCF808604D68DAF800601E
:10105000ED03554601D51E4300E09E432E604D68CA
:10106000AD0305D5DBF800601E43CBF8006004E05B
:10107000DBF800509D43CBF800504D68DEF800606F
:10108000ED02754601D51E4300E09E432E604D687B
:10109000AD0205D5084D0C352E681E432E6004E0C8
:1010A000054E0C3635689D433560641C102CFFF4EA
:1010B00031AFBDE8F88F00000004014000001110BE
:1010C000001002400000014000080140000C0140F7
:1010D000001001400014014000180140001C0140B4
:1010E0000AB1016170470904FBE70000014880680C
:1010F000704700003C0000200248816802781144DB
:10110000816070473C000020074810B5016841F03D
:1011100010010160032000F093F8002000F006F8B1
:1011200000F03EF8002010BD0020024000B501464E
:1011300087B00022192000F063F8192000F054F85D
:101140001348816941F400618161806905A900F457
:1011500000600690684600F033FA00F061FA0D492D
:101160000D4AB0FBF1F10D48491E0260416040F2AA
:10117000E7320021C0E90321816000F0D3FD10B106
:10118000012007B000BD054800F0E8FDF9E70000C8
:101190000010024040420F00002C01409404002047
:1011A0000F4808B5816941F001018161816901F051
:1011B00001010091C16941F08051C161C069002203
:1011C00000F0805000900F21901E00F019F80548A3
:1011D000416821F0E06141F00071416008BD00000C
:1011E000001002400000014000F01F020121914068
:1011F0004009800000F1E020C0F8001170470000B5
:10120000F0B40E4B1B680C46C3F30223C3F1070571
:10121000042D00D90425191D072901D2002300E05F
:10122000DB1E012606FA05F1491E214099409E4029
:10123000761E16403143F0BC01F0C8BA0CED00E058
:10124000064900F0070208684FF6FF03184040EA1D
:101250000220034A10430860704700000CED00E0D4
:101260000000FA05BFF34F8F05480168054A01F4F5
:10127000E06111430160BFF34F8F00BFFDE7000045
:101280000CED00E00400FA050149012008627047F6
:1012900000000E4210B52CA401461DCC86B08DE88E
:1012A0001D002DA02D4C00680490002004292FD093
:1012B0000BDC01292FD0022928D100F0B1F9616897
:1012C000C1F38131491C49001EE0082920D01029B2
:1012D0001CD161682268D20118D5C1F38342C903C9
:1012E0001DF8020009D5616804AAC1F34041515CB0
:1012F0001B4AB2FBF1F1484301E01A4948436168D7
:10130000490203D440000321B0FBF1F006B010BD48
:1013100000F096F9FAE7226AC2F30121012903D10C
:10132000920701D5C803F1E7022905D1626A920745
:1013300002D549F64040E9E70329E7D1216889034E
:10134000E4D54FF22440E1E702030405060708094B
:101350000A0B0C0D0E0F10100102000000100240CD
:1013600000127A0000093D002DE9F8430546007897
:10137000354CC00754D0E0690026C00008D4E069AD
:1013800040F08050E061E069012600F0805000905C
:101390002E480168C90512D40168804641F4807165
:1013A0000160FFF7A3FE074605E000BFFFF79EFEC2
:1013B000C01B642823D8D8F80000C005F6D5206AE1
:1013C00010F4407021D0A98801F4407181421CD0F2
:1013D000206A1F49012220F440700A6000220A603E
:1013E0002062C00711D0FFF781FE074641F288381E
:1013F00008E000BFFFF77AFEC11B414502D9032078
:10140000BDE8F883206A8007F4D5206A696820F473
:101410004070084320621EB1E06920F08050E06116
:101420002878800705D56068A96820F44040084303
:1014300060602878C00605D56068696920F480007E
:10144000084360600020DBE70010024000700040AD
:10145000400442422DE9F047DFF8548105460E462C
:10146000D8F8000000F00700B0420CD2D8F8001005
:1014700021F007013143C8F80010D8F8000000F04F
:101480000700B0426FD128684A4C810712D5400747
:1014900003D5606840F4E06060602878000703D5F9
:1014A000606840F4605060606068A96820F0F000F7
:1014B000084360602878C00744D06868012816D0C7
:1014C0002168022816D0890700294CDA616821F0CA
:1014D000030101436160FFF709FE6968074641F2B5
:1014E000883001290ED00229814618D026E02168D3
:1014F0008903E9E78901E7E7FFF7F8FDC11B4945E3
:1015000001D918E081466068C0F381000128F3D159
:1015100018E000BFFFF7EAFDC11B49450BD8606822
:10152000C0F381000228F5D10CE000BFFFF7DEFD1B
:10153000C11B494502D90320BDE8F087606810F05F
:101540000C0FF3D1D8F80010404601F00701B1426A
:101550000BD9016821F0070131430160006800F0F8
:101560000700B04201D00120E6E72878400705D502
:101570006068E96820F4E06008436060287800074C
:1015800006D56068296920F4605040EAC1006060B7
:1015900000F056F86168084AC1F30311515CC84075
:1015A000064908600020FFF7C1FD0020C4E70000E5
:1015B0000020024000100240984A00084800002025
:1015C0000F2202600C4A536803F003034360536820
:1015D00003F0F0038360536803F4E063C360526870
:1015E0004FF4E06303EAD20202610448006800F0AD
:1015F0000700086070470000001002400020024011
:101600000448054900684968044AC1F30221515C55
:10161000C84070474800002000100240A84A000857
:101620000448054900684968044AC1F3C221515C75
:10163000C84070474800002000100240A84A000837
:1016400012A185B00FC98DE80F0014A0144A0068DC
:1016500004905168134801F00C03042B10D0082BA0
:101660000ED1C1F38343C9031DF803000AD55168A5
:1016700004AAC1F34041515C0A4A5043B0FBF1F067
:1016800005B0704708494843FAE700000203040523
:10169000060708090A0B0C0D0E0F101001020000BE
:1016A0000010024000127A0000093D002DE9F84FB9
:1016B00004460078B94DC00748D06868C0F381007F
:1016C000012807D06868C0F38100022809D1686842
:1016D000C00306D52868800338D5606800286FD01D
:1016E00034E06068B0F5803F0BD010B1B0F5A02FAA
:1016F00011D0286820F480302860286820F48020E9
:1017000002E0286840F480302860606888B1FFF704
:10171000EDFC064609E0286840F480202860F0E7E8
:10172000FFF7E4FC801B642875D828688003F7D590
:101730000CE0FFF7DBFC064605E000BFFFF7D6FC38
:10174000801B6428F0D828688003F7D42078944E52
:1017500080074FF001094FF000083BD5686810F092
:101760000C0F07D06868C0F38100022809D16868AF
:10177000C00306D42868800714D5206901281FD12A
:1017800010E02069B0B1C6F80090FFF7AFFC074643
:1017900005E000BFFFF7AAFCC01B0228C4D82868D8
:1017A0008007F7D52868616920F0F80040EAC10099
:1017B00028600FE0C6F80080FFF798FC074606E0B7
:1017C000E9E000BFFFF792FCC01B022823D828687D
:1017D0008007F7D4207800072CD57248A169D9B1C9
:1017E000C0F80090FFF782FC074604E0FFF77EFC9C
:1017F000C01B02280FD8686A8007F7D56A484FF4E3
:10180000FA510068B0FBF1F0009000BF0098411E53
:101810000091FAD20EE080E0C0F80080FFF766FC8D
:10182000074604E0FFF762FCC01B022875D8686A0F
:101830008007F7D42078400760D5E8690027C0000A
:1018400008D4E86940F08050E861E869012700F0B9
:101850008050009055480168C90513D4016883463B
:1018600041F480710160FFF741FC824606E000BF51
:10187000FFF73CFCA0EB0A0064284ED8DBF8000020
:10188000C005F5D5E06801280AD008B1052813D0B5
:10189000286A20F001002862286A20F0040002E093
:1018A000286A40F001002862E06841F2883B98B164
:1018B000FFF71CFC82460BE0286A40F00400286217
:1018C000EEE700BFFFF712FCA0EB0A0159455AD81A
:1018D000286A8007F6D50CE0FFF708FC824605E091
:1018E000FFF704FCA0EB0A0159454CD8286A800791
:1018F000F6D41FB1E86920F08050E861E06988B350
:101900006968C1F38101022945D00228C6F86080C8
:1019100004D0FFF7EBFB044638E034E0FFF7E6FBCA
:10192000074604E0FFF7E2FBC01B02282BD828681B
:101930008001F7D4206AB0F5803F05D16868A168BE
:1019400020F4003008436860D4E90801084369685E
:1019500021F4741108436860C6F86090FFF7C6FB75
:10196000044606E015E000BFFFF7C0FB001B02289D
:1019700009D828688001F7D50BE000BFFFF7B6FB58
:10198000001B022802D90320BDE8F88F28688001D7
:10199000F4D40020F8E70120F6E700000010024030
:1019A0000000424280044242480000200070004093
:1019B00070B5040003D0607C002610B105E0012062
:1019C00070BD2674204600F043F802206074204663
:1019D00000F010F9042578BB204600F012FF58BB38
:1019E0002068416821F007014160A06820B11748D4
:1019F000016821F0010101601448001F0168A2681C
:101A000021F46071114301606068411C04D1012020
:101A1000FFF740FC80B1401E21688A6822F00F0267
:101A200042EA10428A602168CA6860F30F02CA6005
:101A3000204600F001FF08B16574C0E7E67301209D
:101A40006073A0736074002070BD0000306C0040B3
:101A500008B50068084988420DD1FFF715FC074812
:101A6000C16941F00061C161C069054900F00060D1
:101A700000900120086008BD0028004000100240CE
:101A80003C0442422DE9F0410D4604003BD0C5B371
:101A9000207C01283AD04FF0010884F81080022001
:101AA0006074E87872B300F0A3FEE073687800F029
:101AB0009FFE6073A87800F09BFEA073C2B2617BAA
:101AC000E07B00F0EBFE20732870204600F0D6FE8D
:101AD0004FF46161B0FBF1F1002518292DD91822CE
:101AE000B1FBF2F1A1EB011101EB4101C1EB0111DD
:101AF00000EBC1163146204600F00FFF0427C8B99D
:101B00000BE000E004E00120BDE8F0810220FBE7EB
:101B1000E07368786073A878CFE7204600F0A7FEEE
:101B2000411C0AD0B04208D206490144204600F0C8
:101B3000E0FE10B167742574E5E784F81180257420
:101B40000020E1E7805101002DE9F0410D4604003D
:101B500024D01DB3207C012823D04FF0010884F845
:101B60001080022060742878EAB100F041FE4FF442
:101B7000616100FB01F6687800F03AFEC0EB0010EE
:101B800006EB8006A87800F033FE3518294620467B
:101B900000F0C3FE0026042710BB0FE00120BDE8C3
:101BA000F0810220FBE74FF4616148436978C1EBA3
:101BB000011100EB8100A9784518E7E7206841682A
:101BC00021F005014160204600F051FE411C0AD081
:101BD000A84208D206490144204600F08AFE10B10E
:101BE00067742674DAE784F8118026740020D6E73B
:101BF0008051010070B504000AD02068416821F0CE
:101C000008014160FFF772FA05464FF47A7608E062
:101C1000012070BDFFF76AFA401BB04201D90320D2
:101C200070BD206840680007F4D5002070BD70B515
:101C3000040005D00025A56294F8510010B104E01D
:101C4000012070BD204600F033F8022084F85100D6
:101C50002068016821F040010160D4E901010843D6
:101C6000D4E903121143084361690843218B01F44D
:101C700000710843E1690843216A0843A16A0843E7
:101C800021680860A069042101EA1040616A0843E4
:101C9000216848602168E06A08612068C16921F410
:101CA0000061C1616565012084F85100002070BDAC
:101CB00030B585B000240094019402940394006828
:101CC0001449884223D11448816941F480518161CB
:101CD000816901F480510491816941F004018161BD
:101CE00080690E4D00F004000490B02000900220A6
:101CF00001900320039069462846FFF7FDF8402035
:101D0000CDE90004694628460294FFF7F5F805B0CE
:101D100030BD0000003001400010024000080140CA
:101D20007047704710B5040003D094F83D0010B11F
:101D300007E0012010BD002084F83C00204600F0A0
:101D40000CF8022084F83D00211D206800F09CFE64
:101D5000012084F83D00002010BD70470168CA686A
:101D600042F00102CA600068016841F001010160AF
:101D700000207047704770B50446006801694FF055
:101D80000005C943890715D4C168C943890711D41F
:101D9000E91E0161012020772068806980072046C4
:101DA00002D0FFF7E7FF04E000F098F8204600F0CB
:101DB00096F8257720680169C943490717D4C16897
:101DC000C943490713D46FF0040101610220207751
:101DD0002068806910F4407F204602D0FFF7CAFFD8
:101DE00004E000F07BF8204600F079F825772068C1
:101DF0000169C943090716D4C168C943090712D448
:101E00006FF008010161042020772068C069800715
:101E1000204602D0FFF7AEFF04E000F05FF8204656
:101E200000F05DF8257720680169C943C90617D419
:101E3000C168C943C90613D46FF0100101610820BD
:101E400020772068C06910F4407F204602D0FFF759
:101E500091FF04E000F042F8204600F040F82577BA
:101E600020680169C943C90708D1C168C943C907C6
:101E700004D1891E0161204600F032F82068016912
:101E8000C943090609D4C168C943090605D46FF0DE
:101E9000800101612046FFF743FF20680169C943C3
:101EA000490609D4C168C943490605D46FF0400109
:101EB0000161204600F01EF820680169C9438906C7
:101EC0000BD4C168C943890607D46FF020010161B2
:101ED0002046BDE87040FFF724BF70BD70477047D3
:101EE00000680349884201D1FFF706B97047000036
:101EF000002C01407047704770B5026804461068B6
:101F0000D168536910F00F0F50D003F0010501F4B0
:101F1000907635435DD0C20705D0CA0503D5E26B84
:101F200042F00102E263420705D5DA0703D0E26B13
:101F300042F00202E263820705D5DA0703D0E26BC2
:101F400042F00402E263020705D5DA0703D0E26B30
:101F500042F00802E263E26B002A33D0800604D527
:101F6000880602D5204600F064FE20684069E16BD7
:101F7000C0F38010090700D428B3204600F042FEC9
:101F80002068416949061AD5416921F04001416143
:101F9000606BA0B11B494163606BFEF77BFD0028BD
:101FA00010D0606B416BBDE870400847830610D5C8
:101FB0008B060ED52046BDE8704000F03ABE2046A4
:101FC000FFF799FF70BD2046FFF795FF0020E06303
:101FD00070BD030606D50B0604D52046BDE870404B
:101FE00000F02ABF4006F3D54806F1D5D168204657
:101FF00021F04001D160202184F8391000F02DFA41
:1020000070BD0000652B000870B5040004D094F882
:102010003900002510B106E0012070BD84F8385069
:10202000204600F023F8242084F839002068C16895
:1020300021F40051C160204600F046FE206801698D
:1020400021F4904101612068416921F02A01416138
:102050002068C16841F40051C160E563202084F824
:10206000390084F83A00002070BD00002DE9F04FDF
:1020700085B0002600960196029603960446DFF886
:1020800054C20368944802210322102780254FF48C
:10209000005B634558D1C36943F40023C361C3693E
:1020A00003F400230493836943F010038361806980
:1020B000DFF8288200F0100004904802CDE900010A
:1020C000039269464046FEF717FF2801CDE9000656
:1020D000B246694640460296FEF70EFFDFF80482DC
:1020E0007F494046A946C0E90016C0E90265C8F824
:1020F0001060C8F81460C8E9066B5D46FEF786FEFE
:1021000008B1FEF7ADFC774E7548C4F8348044360C
:102110002830C8F82440C6E90007C6E902A9C6F875
:1021200010A0C6F814A0C6E906A53046FEF76EFE5C
:1021300008B1FEF795FC2663002205213420746265
:10214000FFF75EF8342062E0DFF89CC1634563D19D
:10215000836943F480438361836903F48043049378
:10216000836943F0080383618069DFF8808100F0B0
:10217000080004904020CDE90001039269464046E2
:10218000FEF7BAFECDE90056B146694640460296D2
:10219000FEF7B2FE5648416841F0E06141F00401AB
:1021A0004160DFF84081534908F188084046DA462B
:1021B000C0E90016C0E90265C8F81060C8F81460EC
:1021C000C8E9066BFEF722FE08B1FEF749FC454E52
:1021D0004848C4F83480CC361438C8F82440C6E9DE
:1021E0000007C6E90295C6F81090C6F81490C6E933
:1021F000069A3046FEF70AFE08B1FEF731FC266368
:102200000022052125207462FEF7FAFF2520FEF743
:10221000EBFF05B0BDE8F08FDFF8DCC06345F8D117
:10222000C36943F40033C361C36903F40033049307
:10223000836943F0040383618069DFF8C08000F0A4
:10224000040004900420CDE9000103926946404651
:10225000FEF752FE0820CDE90006B1466946404629
:102260000296FEF749FEDFF8988022494046143175
:10227000C0E90016C0E90265C8F81060C8F814602B
:102280004FF4805AC8E9066AFEF7C0FD08B1FEF7B0
:10229000E7FB1B4E1748C4F8348044362830C8F892
:1022A0002440C6E90007C6E90295C6F81090C6F8B2
:1022B0001490C6E9069A3046FEF7A8FD08B1FEF76D
:1022C000CFFB26630022052126207462FEF798FFCB
:1022D00026209CE7004C0040001002400010014006
:1022E00030040240FC02002000380140000C014094
:1022F0000000014058000240004400400008014036
:102300000C040020F8B5044690F83A0020283CD18F
:10231000C1B3BAB394F83800012836D0012084F84C
:102320003800A162A2850025E563222084F83A00E6
:10233000636B17489862636B1648D862636B1648E4
:102340001863606B134645630846666B2168024656
:102350003046091DFEF798FD20680168416800912C
:1023600084F83850C16841F48071C16020684169C7
:1023700041F0010141612068416941F04001416142
:102380000020F8BDFFE70120FBE70220F9E700008D
:10239000BF2B0008FB2B0008752B00087047704707
:1023A0002DE9F843044690F839001F4616460D46BD
:1023B000202850D1A5B19EB194F8380001284AD008
:1023C000012084F838004FF00008C4F83C80212038
:1023D00084F83900FEF78AFEA6848146E68426E06A
:1023E0000120BDE8F883E08C401EE084A0684B46E5
:1023F000B0F5805F4FF000024FF08001204600975B
:1024000003D000F04AFDE8B90DE000F046FDC8B980
:1024100028882168C0F308004860206908B16D1C55
:1024200005E0AD1C03E0216815F8010B4860E08C65
:102430000028D8D14B46002240212046009700F0CA
:102440002CFD08B10320CCE7202084F8390084F863
:1024500038800020C5E70220C3E77047FEE7000090
:10246000214808B5416941F001014161416901F02C
:1024700001010091416941F002014161406900227E
:1024800000F00200009005210E20FEF7B9FE0E209C
:10249000FEF7AAFE002205210F20FEF7B1FE0F2055
:1024A000FEF7A2FE002205211020FEF7A9FE102053
:1024B000FEF79AFE002205211120FEF7A1FE112051
:1024C000FEF792FE002205213A20FEF799FE3A20FF
:1024D000FEF78AFE002205213B20FEF791FEBDE8B3
:1024E00008403B20FEF780BE0010024030B593B09C
:1024F00000250CA80C9500F036FE254C0121E0616A
:102500000DA80D9500F032FE224D206200222868B1
:102510000E9011460EA800F053FE2061686800225C
:102520000F9011460FA800F04BFE6061A868109054
:102530000022012110A800F043FEA061E8680022FB
:102540001190114611A800F03BFE2060D5E904016E
:10255000CDE90A0100210AA800F001FEE060142282
:1025600005F118016846FDF74BFE0021684600F0B2
:1025700010FE6060142205F12C0105A8FDF740FE55
:10258000002105A800F005FEA06013B030BD0000DA
:1025900000000020584A00082DE9F04186B00024D0
:1025A00029480094019402940394816941F0100138
:1025B0008161816901F010010491816941F020017C
:1025C0008161816901F020010491816941F0040178
:1025D0008161816901F004010491816941F0080180
:1025E00081618069194F00F00800049000220721E2
:1025F0003846FEF775FD012208213846FEF770FDCA
:10260000DFF84C80012220214046FEF769FD0022C0
:10261000B9154046FEF764FD0F2001250226CDE9DD
:102620000005CDE9024669463846FEF765FC4FF4E1
:102630009070CDE90005CDE9024669464046FEF7B7
:102640005BFC06B0BDE8F0810010024000100140C4
:10265000000C01401CB50024184801941649009450
:102660000160611E41604FF480718160FFF7A0F945
:1026700008B1FEF7F5F98DF804408DF805408DF8A6
:102680000640012201A90D48FFF75EFA08B1FEF7E6
:10269000E7F901208DF800008DF801008DF80200A7
:1026A00002468DF8034069460448FFF7EBF900281D
:1026B00001D0FEF7D5F91CBD00280040D000002055
:1026C000104810B50E4901604FF48271416000213D
:1026D0008160C1604FF400720161C0E905120822F7
:1026E000C0E90721416281620A21C162FFF79FFAB6
:1026F000002803D0BDE81040FEF7B2B910BD0000BD
:1027000000300140E400002010B50E4C0C480C21B4
:1027100020604FF4E13060600020A060E060C4E918
:102720000401A061E0612046FFF76EFC08B1FEF7EE
:1027300097F92068C16841F01001C16010BD000028
:10274000004C00403C02002010B50E4C0C480C21FF
:1027500020604FF4E13060600020A060E060C4E9D8
:102760000401A061E0612046FFF74EFC08B1FEF7CE
:1027700077F92068C16841F01001C16010BD000008
:10278000003801407C02002010B50E4C0C480C2192
:1027900020604FF4E13060600020A060E060C4E998
:1027A0000401A061E0612046FFF72EFC08B1FEF7AE
:1027B00057F92068C16841F01001C16010BD0000E8
:1027C00000440040BC020020FEE770470907090EE4
:1027D000002806DA00F00F0000F1E02080F8141D58
:1027E000704700F1E02080F8001470477047704790
:1027F000010901EB810100F00F0000EB4100C0B2C4
:10280000704770B50446FEF771FC05464FF47A76C2
:1028100006E0FEF76BFC401BB04201D9032070BDFF
:10282000206840688006F4D52068416841F01001B6
:102830004160002070BD000070B50446006841682A
:1028400021F010014160FEF751FC05464FF47A7605
:1028500007E000BFFEF74AFC401BB04201D903204D
:1028600070BD206840688006F4D5002070BD016806
:10287000086A496A89B241EA004070470068816984
:102880008AB2C1698BB2816989B28A4203D0C069B8
:1028900061F31F40704743EA02407047F0B564247B
:1028A000C1EBC1030927A500072603EB0113032988
:1028B000B3FBF7F100F5FA60114401440AD2401E5F
:1028C000B0FBF4F201EB9001B0FBF5F0891A08447B
:1028D000001D08E0B0FBF4F201EB9001B0FBF5F055
:1028E000891A0844801CB0FBF6F106FB1100C0B247
:1028F000F0BD70B50D4606460024FFF782FF48B9CB
:102900003168280C08623168A8B248623046FFF787
:1029100093FF00B10124204670BD70B50D460646F8
:102920000024FFF76EFF48B93168280C88613168D0
:10293000A8B2C8613046FFF77FFF00B101242046EE
:1029400070BDFEF777B80000FEF760F842F2107035
:1029500000F0F9FBFDF778FF094C0A4E0A4F0025FD
:102960004FF4807820780028FCD0357039880748EB
:10297000FDF75FFC424605490548FFF7C3FCF1E758
:1029800025000020240000202A0000203C01002017
:10299000BC0200204FF47A74204600F0D4FBFBE721
:1029A00010B5502080F31188BFF34F8FBFF36F8FA6
:1029B00001F084FE18B104494FF0805008600020F7
:1029C00080F3118810BD000004ED00E070B596B0F2
:1029D00028216846FDF72DFC14210AA8FDF729FCE3
:1029E00018210FA8FDF725FC0920012500904FF4C0
:1029F0008030002404950695CDE901040226CDE936
:102A000007604FF4E01009906846FEF74FFE0F2074
:102A1000CDE90A06A802CDE90C4002210AA80E94CD
:102A2000FEF718FD6802CDE90F500FA8FEF79CFCD9
:102A300016B070BD0D48016841F0010101604168A8
:102A40000B4A1140416001680A4A11400160016867
:102A500021F480210160416821F4FE0141604FF4BE
:102A60001F0181600449C0030860704700100240E4
:102A70000000FFF8FFFFF6FE08ED00E00148FFF759
:102A80007AB9000094040020F0B502681C4B1D4D7B
:102A90001D4E1E4F1E4C4FF0804C984209D0A04254
:102AA00007D0604505D0A84203D0B04201D0B8425B
:102AB00004D122F0700E4A6842EA0E02984209D010
:102AC000A04207D0604505D0A84203D0B04201D053
:102AD000B84203D122F44075CA682A4322F0800527
:102AE0004A692A4302608A68C2620A68826298421E
:102AF00001D0A04201D10969016301214161F0BD0A
:102B0000002C01400004004000080040000C004080
:102B10000034014038B51048FFF7EEF90E4C20683C
:102B2000C168C90617D50068C043C00613D4606BDE
:102B3000FDF797FF606B006840680849C0F580703A
:102B400008802068016840680090202084F83A00DE
:102B500003490120087038BD3C0200202C000020F1
:102B60002600002010B5406A0021C185C184FFF70E
:102B7000C2F910BD70B5446A2068406994F83910F4
:102B8000C0F3C0100025212904D118B1E5842046E6
:102B900000F046F82068406994F83A10C0F38010BD
:102BA000222904D118B1E585204600F02BF8E06B0E
:102BB00040F01000E0632046FFF79DF970BD10B5AE
:102BC0000146406A09680968890613D40021C18555
:102BD0000168CA6822F48072CA6001684A6922F0FA
:102BE00001024A6101684A6922F040024A612021DB
:102BF00080F83A10FFF7D2FB10BD10B5406AFFF71E
:102C0000CEFB10BD0168CA6822F49072CA600168E8
:102C10004A6922F001024A61202180F83A10704787
:102C20000168CA6822F0C002CA60202180F8391009
:102C3000704710B590F83A10222901D0022010BD3B
:102C40008168B1F5805F11D00169002901681FD04A
:102C5000496801F07F03816A4A1C82620B70C18D52
:102C6000491E0904090CC18518D02BE00269816A4C
:102C7000002A0268526805D0D2B20A80816A491CD3
:102C80008162ECE7C2F308020A80816A891CF7E7D7
:102C90004A68816A4B1C83620A70E0E70168CA686F
:102CA00022F02002CA600168CA6822F48072CA60F9
:102CB00001684A6922F001024A61202180F83A1035
:102CC000FFF76CFB002010BD2DE9F04104460068C1
:102CD0000169E26821F44051114301612169A06852
:102CE0000843616908432168CA6841F20C639A434A
:102CF0000243CA6020684169A26921F4407111430E
:102D000041614C4920686425322688423CD1FEF757
:102D100087FC00EBC00101EB001061688900B0FB8B
:102D2000F1F7FEF77DFC00EBC00101EB00106168DC
:102D3000B0468900B0FBF1F0B0FBF5F06FF0180180
:102D4000484307EB800106EB0110B0FBF5F000F003
:102D5000F006FEF765FC00EBC00101EB00106168B6
:102D60008900B0FBF1F0B0FBF5F006EB0016FEF7C2
:102D700057FC00EBC00101EB001061688900B0FB5B
:102D8000F1F7FEF74DFC3BE0FEF73AFC00EBC0012B
:102D900001EB001061688900B0FBF1F7FEF730FC31
:102DA00000EBC00101EB00106168B0468900B0FB88
:102DB000F1F0B0FBF5F06FF01801484307EB80012C
:102DC00006EB0110B0FBF5F000F0F006FEF718FC82
:102DD00000EBC00101EB001061688900B0FBF1F06D
:102DE000B0FBF5F006EB0016FEF70AFC00EBC001A5
:102DF00001EB001061688900B0FBF1F7FEF700FC01
:102E000000EBC00101EB001061688900B0FBF1F03C
:102E1000B0FBF5F06FF01801484307EB800108EBB9
:102E20000110B0FBF5F0216800F00F00304488601D
:102E3000BDE8F0810038014090F83910212901D017
:102E4000022070478168B1F5805F016A0BD04A1C8F
:102E50000262026809785160C18C491E0904090C9C
:102E6000C1840ED017E009880268C1F308015160DF
:102E700001690029016A02D0491C0162ECE7891C42
:102E8000FBE70168CA6822F08002CA600068C16876
:102E900041F04001C160002070472DE9F0419846A3
:102EA00017460E460446069D1DE0681C1BD02DB13A
:102EB000FEF71CF9A0EB0800A84214D92068C168ED
:102EC00021F4D071C1602068416921F001014161A4
:102ED000202084F8390084F83A00002084F8380073
:102EE0000320BDE8F0812068006836EA000004D0C5
:102EF0000020B842D9D00020F3E70120F9E7000014
:102F000038B51048FEF7F8FF0E4C2068C168C906B6
:102F100017D50068C043C00613D4606BFDF7A1FD50
:102F2000606B006840680849C0F5807008802068C0
:102F3000016840680090202084F83A00034901208D
:102F4000087038BD7C0200202800002024000020EA
:102F500038B51048FEF7D0FF0E4C2068C168C9068E
:102F600017D50068C043C00613D4606BFDF779FD28
:102F7000606B006840680849C0F580700880206870
:102F8000016840680090202084F83A00034901203D
:102F9000087038BDBC0200202A0000202500002057
:102FA000FEE700000FB4054B10B503A9044A0298D0
:102FB00000F017F810BC5DF814FB0000E9300008C1
:102FC000CC00002002E008C8121F08C1002AFAD174
:102FD00070477047002001E001C1121F002AFBD199
:102FE00070472DE9F84F99469246884605460027D6
:102FF00006E025280AD051464A4690476D1C7F1CA2
:1030000028780028F5D13846BDE8F88F002315F858
:10301000011F18462E2915D115F8011F04232A294E
:103020000DD06FF02F022978A1F13004092C09D8B6
:1030300000EB800002EB400008446D1CF3E758F8F9
:10304000040B6D1C2A78002ADDD0632A07D0732A6E
:103050000FD0104651464A4690477F1C2AE018F888
:10306000042B8DF8002000218DF801106E460121FF
:1030700003E058F8046B4FF0FF315A074FF000049B
:1030800001D409E0641C84420BDA8C42FADB325D25
:10309000002AF7D105E0641C8C42FCDB305D00287F
:1030A000F9D1274404E016F8010B51464A469047EF
:1030B000641EF8D26D1CA3E709490120096809B113
:1030C000002070470749CA69002AF9D1044A896873
:1030D00028321268491E8A42F3D10220704700004C
:1030E000040600204C00002013B54FF6FF730122A8
:1030F00069460248FFF754F900981CBDBC02002045
:10310000EFF30580002800D001207047FDF7FCFF99
:10311000FFF75CFCFFF740FAFFF7A2F9FFF79AFA16
:10312000FFF7CEFAFFF7F0FAFFF72EFBFFF70CFBE5
:10313000FFF7DCF900F00EF8FEE7014600208429D5
:1031400000D0C81C704710B500B9012000F08CFEFB
:10315000002010BD10B500F03BFF002010BD03C8DB
:10316000002201F003B8012000F0EEBF10B50129E4
:1031700001D0002010BD03220021012000F0F6FF45
:10318000040004D000231A46194601F013F9204622
:1031900010BD3EB504460D46B0F90800FFF7CDFF5F
:1031A00002A9CDE90001208A2B4682B2D4E90010A1
:1031B00001F044FA012801D000203EBD02983EBD36
:1031C00008B500680090012907D000201346024688
:1031D000012103A001F0C2FB08BD0120F6E70000B9
:1031E000000000002DE9FC41002507462E46019510
:1031F0000C0000D10124FFF783FF009690B101ABD2
:1032000022460921384601F0F7FB012812D1019826
:1032100088B10A494FF080500860BFF34F8FBFF369
:103220006F8F08E0002322460421384601F0E4FBBA
:10323000012800D0FF252846BDE8FC8104ED00E010
:103240007CB5002506462C460195FFF759FF0094F2
:10325000A0B101AB00220821304601F0CDFB0128CE
:1032600001D0FF207CBD019888B10A494FF0805001
:103270000860BFF34F8FBFF36F8F08E000231A463B
:103280000321304601F0B8FB012800D0FF25284675
:103290007CBD000004ED00E02DE9F041184C0F4624
:1032A0000546E6682068001D00F042FC38B9206839
:1032B00090F82C1001208840216981432161681C0D
:1032C00007D137B12168BDE8F0410E48091D00F073
:1032D00067BC20683544B5424560216805D2A06BC3
:1032E000BDE8F041091D00F043BC606B091D00F012
:1032F0003FFCA06A854200D2A562BDE8F0810000D3
:103300004C0000202C0600202DE9F041054600F07D
:1033100053FC2E4CA068401CA06020682C4F10B1BC
:10332000606938B32CE02560A068012828D1002608
:1033300006EB860007EB800000F00CFC761C0A2EE2
:10334000F6D32348C83000F005FC2148DC3000F0FB
:1033500001FC1F48F03000F0FDFB1E4800F0FAFBB6
:103360001C48143000F0F6FB1A483C3860631430F7
:10337000A06305E02068E96AC06A884200D8256039
:10338000606A401C60626864E96A012022698840C2
:103390001043206101EB810007EB8000291D00F044
:1033A000FFFB00F029FC606900280CD02068E96A66
:1033B000C06A884207D208494FF080500860BFF3C6
:1033C0004F8FBFF36F8FBDE8F08100004C000020ED
:1033D000140500201806002004ED00E010B500F0F0
:1033E000EBFB0E4C2068A0B90D4800F0B3FB0C4875
:1033F000143000F0AFFB0A48E06014302061002276
:103400000C210A2000F0B2FE206010B105A100F0EE
:10341000F5FCBDE8104000F0EFBB00008800002084
:1034200040060020546D72510000000070B5114E2E
:10343000114C17E000F018FE3068B8B101F02CFA1A
:1034400000F0BAFBF068C568281D00F071FBA068A9
:10345000401EA0606068401E606000F0CDFB284602
:1034600000F055F860680028E4D170BD01F014FA4E
:10347000F8E70000180600204C00002030B4026C71
:103480000B46002A0BD0C1681144C1604468A142B8
:1034900001D30168C16030BC1846FCF7B1BE30BC36
:1034A00070472DE9F041856B174604460026026CF3
:1034B00082B1C7B1E068FCF7A3FEE168206C091A8D
:1034C000E1602268914202D26168081AE060022F2E
:1034D00016D017E02068A8B9606801F053F90646D5
:1034E000002060600EE0A068FCF78AFE216CA068F6
:1034F0000844A0606168884204D32068A06001E0AD
:1035000005B16D1E6D1CA5633046BDE8F08110B598
:103510000446006B00F084FB2046BDE8104000F03C
:103520007FBB00000A4800210269012A00D901215D
:103530000268D26A0AB100207047064A1268012A5E
:10354000F9D80029F7D1816AC068081A70470000CD
:103550004C0000201405002010484FF4A041420701
:1035600006D0C01D0D4920F00700411AC1F5A04149
:103570000B4A00230144C2E900030839103A21F044
:10358000070111604B600B600B1AC0E900139360D8
:103590004FF000405360D060704700006806002084
:1035A000AC000020154D164F164C4FF0805600BF52
:1035B000FFF73CFF2868012804D93E60BFF34F8F16
:1035C000BFF36F8FFFF7AEFF0228F1D300F04CFD81
:1035D000A06AE168884207D2502080F31188BFF3C7
:1035E0004F8FBFF36F8FFEE7FFF79CFF022801D3D9
:1035F00000F066FB01F050F9DAE700001405002046
:1036000004ED00E04C0000202DE9F0470E46DDE916
:1036100009841746824691009946089DA522206B91
:10362000FCF700FE6FF00301206B01EB87010844FB
:1036300020F00707780707D0502080F31188BFF3E8
:103640004F8FBFF36F8FFEE72218315C82F8341082
:10365000315C11B1401C1028F6D3002684F8436079
:103660000A2D00D30925E562C4E91356201D00F098
:103670007CFA04F1180000F078FA2461C5F10A0020
:103680006462A061666584F858604A4651463846CF
:1036900000F03CFA2060B8F1000F01D0C8F80040FB
:1036A000BDE8F08730B5114900E011460A68824252
:1036B000FBD34B685C18844203D1406818444860CF
:1036C000084643681C18944209D1084C103C2468F1
:1036D000A24209D052681A4442600A681268026025
:1036E000814200D0086030BD0460F9E7AC000020E2
:1036F00070B5002441600B4D0061914206D8D11A8B
:103700008269914206D2011D286907E09A4203D2DC
:10371000994201D3012403E0011DE86800F028FA72
:10372000204670BD8800002010B5044600F044FA21
:10373000A06B28B15FF0000400F05EFA204610BDD7
:103740000124F9E730B587B02B4D4BE004980028F1
:1037500048DB069C606910B1201D00F0E9F902A861
:1037600000F0B6F8024604980A283BD2DFE800F0E1
:103770000505053A263705053A260598A169034649
:1037800001442046FFF7B4FF00B3616A2046884732
:10379000E069012826D1002000900598A169002346
:1037A00042181946204601F027F978B9502080F3D5
:1037B0001188BFF34F8FBFF36F8FFEE70598A061AD
:1037C00028B1811813462046FFF792FF0AE05020E7
:1037D00080F31188BFF34F8FBFF36F8FFEE7204652
:1037E00000F01EFA00231A4604A9286800F0E8FC3D
:1037F0000028ABD107B030BD880000202DE9FC4186
:103800000F46054600F030FC01A800F061F80446C0
:10381000019818B101F040F8BDE8FC81224EAFB12B
:1038200030690068A8B30027291B3A46306800F0C9
:10383000F9FA01F031F80028EED11C494FF0805020
:103840000860BFF34F8FBFF36F8FE5E7A542EBD85A
:1038500001F022F8F0682746C068C468201D00F017
:1038600067F9E069012810D1A0692B4641193A4651
:103870002046FFF73DFF40B100200346014600907F
:103880002A46204601F0B8F820B1616A20468847F0
:10389000C2E707E0502080F31188BFF34F8FBFF3DA
:1038A0006F8FFEE70127BFE78800002004ED00E0EE
:1038B0000648416B096829B1416BC968C968496804
:1038C000816270474FF0FF31FAE700004C000020A2
:1038D00070B5054600F0ECFE064E0446B068844222
:1038E00003D200F009F8012000E000202860204603
:1038F000B46070BD88000020F8B5194D1FE0C068A5
:10390000C4680668201D00F013F9616A20468847E4
:10391000E069012813D1A0693044B04206D924617E
:103920006060211DE86800F023F908E000200346EC
:10393000014600903246204601F05EF838B1E86852
:1039400001680029DBD12969C5E90310F8BD5020C1
:1039500080F31188BFF34F8FBFF36F8FFEE7000036
:103960008800002008484068401C4FF0500080F359
:10397000118804D0BFF34F8FBFF36F8FFEE7BFF303
:103980004F8FBFF36F8FFEE7B4000020074CE06855
:10399000016841B1C0680021D0F80000FFF72EFF98
:1039A000FFF7D0FEF3E701210020F7E788000020B1
:1039B0002DE9F041044600F0FFF894F9455004F178
:1039C000240609E0606A48B1304600F027FF08B1DC
:1039D00000F070FA6D1E6DB2002DF3DC4FF0FF3673
:1039E00084F8456000F008F900F0E6F894F94450D6
:1039F00004F1100709E0206948B1384600F00EFFD5
:103A000008B100F057FA6D1E6DB2002DF3DC84F89A
:103A10004460BDE8F04100F0EFB800002DE9F0414E
:103A20000546002700F020FB314E306808B9FFF74B
:103A300093FDF06805424BD1C5B3083568070ED039
:103A400005F00700C0F108000544680707D05020C2
:103A500080F31188BFF34F8FBFF36F8FFEE72DB355
:103A60007068854234D82248103001460C6801E065
:103A700020460C466168A94202D221680029F7D18C
:103A800031688C4224D0076821680160606808377B
:103A9000411B10290FD96019420708D0502080F32C
:103AA0001188BFF34F8FBFF36F8FFEE710E04160C7
:103AB0006560FFF7F7FD61687068401A7060B26872
:103AC000904200D2B060F06801430020C4E90001D8
:103AD00000F0E2FE780707D0502080F31188BFF392
:103AE0004F8FBFF36F8FFEE73846BDE8F0810000CF
:103AF0009C0000200449086818B10868026D521C37
:103B000002650868704700004C00002010B5031FD4
:103B10004FF080741C601B1F21F001011960191FF8
:103B2000024B0B60143940380A6010BD653900083B
:103B3000D0E9013201699A60D0E901235A604A68EC
:103B4000824201D182684A60002202610868401EF8
:103B50000860704700F108014FF0FF32C0E9011220
:103B6000C16001610021016070470021016170475F
:103B700030B50B685A1C02D000F1080202E002695D
:103B800004E02246546825689D42FAD953684B6088
:103B900099608A60516008610168491C016030BD0C
:103BA00042684A6093688B609368596091600861CD
:103BB0000168491C01607047502080F31188BFF3F1
:103BC0004F8FBFF36F8F0A494868401C4860012837
:103BD0000CD10848006810F0FF0F07D0502080F388
:103BE0001188BFF34F8FBFF36F8FFEE77047000060
:103BF000B400002004ED00E00849486828B1401EE8
:103C0000486001D180F311887047502080F31188FB
:103C1000BFF34F8FBFF36F8FFEE70000B4000020AB
:103C200070B5002827D0144DA0F108046168E86839
:103C3000014207D1502080F31188BFF34F8FBFF3AB
:103C40006F8FFEE722683AB1502080F31188BFF3EE
:103C50004F8FBFF36F8FFEE78143616000F004FA7E
:103C600060686968084468602046FFF71BFDBDE88E
:103C7000704000F011BE70BD9C0000200E4810B5D1
:103C800001684FF47A72B1FBF2F30C486FF07F4495
:103C90008360B4FBF3F3C360B1FBF1F32D24B4FBF9
:103CA000F3F3B1FBF2F103614FF0E020491E4161F3
:103CB0000721016110BD000048000020B400002071
:103CC000F1B5384D82B00299E868814200D902907E
:103CD0004FF0E024206920F001002061A1690298E2
:103CE000AA68401E02FB00162869864200D9361ACF
:103CF00072B6BFF34F8FBFF36F8FFFF7DDF958B385
:103D000066610027A761206940F0010020610298E8
:103D100000906846FEF76BFD009820B1BFF34F8F0F
:103D200030BFBFF36F8F02A8FEF760FD206920F05F
:103D30000101216162B6C00319D5A069A968301AD2
:103D4000081A2A69401E904201D3884200D9481EB1
:103D50006061029A521E15E0A0696061206940F01E
:103D600001002061A868401E606162B6FEBD029835
:103D7000A968A2694843801AB0FBF1F2531C4B4377
:103D8000181A6061A761FFF717FF206940F0010072
:103D90002061104600F054F9A868401E6061FFF7EA
:103DA0002BFFFEBDB400002010B5FCF713FA11493B
:103DB00010280ED300F1E02090F8F0030A7890422A
:103DC00007D2502080F31188BFF34F8FBFF36F8F5E
:103DD000FEE709480068496900F4E060884207D9B5
:103DE000502080F31188BFF34F8FBFF36F8FFEE732
:103DF00010BD0000B40000200CED00E010B5084B31
:103E0000002200BF53F832401CB1521C082AF9D3DB
:103E100010BD43F8321003EBC201486010BD000032
:103E2000D404002070B515460E460446FFF7C4FEC4
:103E300094F944100020491C01D184F8440094F9FD
:103E40004510491C01D184F84500FFF7D5FEA06B51
:103E500028B92A46314604F1240000F049F82046EA
:103E6000BDE87040FFF7A4BD10B5020014D00F48A4
:103E7000006B38B1502080F31188BFF34F8FBFF330
:103E80006F8FFEE700F0F0F800211046FFF704FA0C
:103E900000F002FD002807D105494FF0805008606E
:103EA000BFF34F8FBFF36F8F10BD00004C00002099
:103EB00004ED00E001490120C86170474C0000207A
:103EC00010B50C4650B1094909681831FFF750FE8A
:103ED0002046BDE810400121FFF7DEB9502080F3F5
:103EE0001188BFF34F8FBFF36F8FFEE74C000020A8
:103EF00070B514460D4668B10A4909681831FFF7D4
:103F00004FFE0CB14FF0FF3521462846BDE870400A
:103F1000FFF7C2B9502080F31188BFF34F8FBFF372
:103F20006F8FFEE74C00002070B5040039D01D4DA6
:103F3000E06A2968C96A884233D2A069002804DB94
:103F40002868C06AC0F10A00A061E16A164E01EB60
:103F50008101606906EB810188421FD1201DFFF7B6
:103F6000E7FD012150B9E06A00EB800256F82220FB
:103F700022B92A6901FA00F082432A612868C06ADE
:103F8000E0622A6981401143296100EB800006EB61
:103F90008000211DBDE87040FFF702BE2868C06A9E
:103FA000E06270BD4C0000201405002028B10749D4
:103FB0000A6A0260C96841607047502080F3118826
:103FC000BFF34F8FBFF36F8FFEE700004C00002060
:103FD0001CB517480024CDE9004023464FF4806209
:103FE00014A1164800F02AFB012803D100F0DEFCE2
:103FF000012809D0401C1AD1502080F31188BFF34A
:104000004F8FBFF36F8FFEE7502080F31188BFF30F
:104010004F8FBFF36F8F06484FF0FF312C3881620E
:1040200001214161C460BDE81C4000F053B81CBDD3
:104030007800002049444C4500000000A5350008E8
:104040000849CA688B6A02449A4207D9502080F313
:104050001188BFF34F8FBFF36F8FFEE7CA6810441C
:10406000C86070474C0000200248016B491C016386
:10407000704700004C0000201448016B11B1012171
:10408000C16170470021C1610169B1FA81F1C1F1DB
:104090001F0101EB81020E4951F822306BB101EB97
:1040A000820101F108034A6852684A609A4201D1CC
:1040B00052684A60D16801607047502080F31188CF
:1040C000BFF34F8FBFF36F8FFEE700004C0000205F
:1040D000140500201CB5194908780190FF200870CC
:1040E00008788DF800009DF80000154C00F0500095
:1040F00020700720606105E09DF8002052008DF8D7
:104100000020401E9DF800201206F5D4000200F4A5
:10411000E0606061019808700A48016841F470012C
:104120000160016841F070410160FFF7A7FD0020C8
:104130006060FCF719F800201CBD000000E400E0FE
:10414000B400002020ED00E010B50246002101205F
:1041500000F00CF8041E07D00021416001600B46FE
:104160000A46C16000F026F9204610BD2DE9F04155
:1041700017460E46050016D0EEB105FB06F050308E
:10418000FFF74CFC04000CD004F15000AEB12060ED
:10419000C4E90F562046012100F0C8F8204684F8F3
:1041A0004C70BDE8F081502080F31188BFF34F8F31
:1041B000BFF36F8FFEE70020E1E72460E8E700002F
:1041C0002DE9FF4F002683B09B468A46040003D0AA
:1041D000BAF1000F08D011E0502080F31188BFF32E
:1041E0004F8FBFF36F8FFEE7206C38B1502080F304
:1041F0001188BFF34F8FBFF36F8FFEE700F04AFACD
:10420000DFF824814FF000094FF0805748B9059836
:1042100038B1502080F31188BFF34F8FBFF36F8FF9
:10422000FEE7FFF7C9FCA56B45B351462046E6689B
:10423000FFF724F9BBF1000F13D0E660606A50B1BC
:1042400004F1240000F0EAFA28B1C8F80070BFF3C6
:104250004F8FBFF36F8FFFF7CFFC012007B0BDE892
:10426000F08F6D1EA563206810B9FFF743FC6060F6
:1042700020690028EFD004F11000E3E7059808B1A9
:104280001EB106E0FFF7B8FC27E06846FFF78EFE98
:104290000126FFF7B1FCFFF7E7FEFFF78DFC94F96D
:1042A0004400401C01D184F8449094F94500401C1E
:1042B00001D184F84590FFF79FFC05A9684600F0FE
:1042C00087F9002820460AD0FFF772FB00F0E4FAD5
:1042D0002046FFF729FA0028A3D00020BEE7FFF709
:1042E00023FAD8B1206830B9FFF766FC6068FFF7A1
:1042F0001BFEFFF781FC04F124000599FFF7E0FDA8
:104300002046FFF755FB00F0C7FA002889D1C8F80E
:104310000070BFF34F8FBFF36F8F82E72046FFF728
:1043200047FB00F0B9FA7CE704ED00E070B50D46FC
:10433000040025D0FFF740FCD4E90F20216802FBE0
:10434000001161600021A1632168A1600A46D4E9DF
:104350000F01401E00FB0121E16021464FF0FF30BC
:1043600001F8440F487004F110008DB1FFF7F2FB23
:1043700004F12400FFF7EEFBFFF73EFC012070BDC7
:10438000502080F31188BFF34F8FBFF36F8FFEE78C
:1043900021690029F0D000F041FA0028ECD004494E
:1043A0004FF080500860BFF34F8FBFF36F8FE3E78C
:1043B00004ED00E02DE9FF4782B01D468A464FF02C
:1043C0000008040003D0BAF1000F08D011E050201B
:1043D00080F31188BFF34F8FBFF36F8FFEE7206C20
:1043E00038B1502080F31188BFF34F8FBFF36F8F28
:1043F000FEE7022D0AD1E06B012807D0502080F3A0
:104400001188BFF34F8FBFF36F8FFEE700F042F9C3
:104410003F4F4FF000094FF0805648B9049838B12B
:10442000502080F31188BFF34F8FBFF36F8FFEE7EB
:10443000FFF7C2FBA06BE16B884207D3022D05D0CA
:104440000498D0B1B8F1000F1AD01EE02A465146A8
:104450002046FFF726F8616A19B104F1240000F044
:10446000DDF920B13E60BFF34F8FBFF36F8FFFF7D1
:10447000C3FB012006B0BDE8F087FFF7BDFB22E0DB
:104480006846FFF793FD4FF00108FFF7B5FBFFF714
:10449000EBFDFFF791FB94F94400401C01D184F837
:1044A000449094F94500401C01D184F84590FFF7F1
:1044B000A3FB04A9684600F08BF830B12046FFF753
:1044C00077FA00F0E9F90020D4E7FFF775FBA06B5D
:1044D000E16B884213D1FFF78FFB04F110000499C0
:1044E000FFF7EEFC2046FFF763FA00F0D5F900284D
:1044F0009ED13E60BFF34F8FBFF36F8F98E7FFF7FA
:104500007BFB2046FFF754FA00F0C6F990E7000065
:1045100004ED00E02DE9F0471F469046894604006F
:1045200003D0B9F1000F08D011E0502080F31188BA
:10453000BFF34F8FBFF36F8FFEE7206C38B1502071
:1045400080F31188BFF34F8FBFF36F8FFEE7022F09
:104550000AD1E06B012807D0502080F31188BFF307
:104560004F8FBFF36F8FFEE7FFF71EFC5020EFF376
:10457000118680F31188BFF34F8FBFF36F8FA06B4D
:10458000E16B884206D3022F04D0002086F3118805
:10459000BDE8F08794F945503A4649462046FEF773
:1045A00080FF681C04D06D1C84F845500120EDE7A5
:1045B000606A0028FAD004F1240000F02FF90028E6
:1045C000F4D0B8F1000FF1D00121C8F80010EDE7E8
:1045D00070B50D46040019D005B3FFF7EDFA164A81
:1045E000D1682868431C0FD02368126A934202D016
:1045F00062688A421AD96268891A814216D2401AC0
:1046000028602046FFF7D2FC002410E0502080F301
:104610001188BFF34F8FBFF36F8FFEE7502080F3F9
:104620001188BFF34F8FBFF36F8FFEE70124FFF7B1
:10463000E3FA204670BD00004C0000202DE9FF5F2A
:104640008346DDE90E87994616468A469000FFF7B5
:10465000E5F905001AD05C20FFF7E0F9040012D05C
:1046600025630021CDE90241CDE900874B46324662
:1046700051465846FEF7C8FF2046FEF745FE01208A
:1046800004B0BDE8F09F2846FFF7CAFA4FF0FF30AC
:10469000F6E700000548416919B1006B18B1002028
:1046A0007047012070470220704700004C00002036
:1046B0000148C068704700004C0000202DE9F0411F
:1046C0002E4C0027206B40B1A069401CA061E0691E
:1046D00000B101273846BDE8F081E668761CE66047
:1046E00013D1606B006838B1502080F31188BFF39C
:1046F0004F8FBFF36F8FFEE7606BA16B6163A063A9
:10470000206A401C2062FFF7D3F8A06ADFF87080AF
:10471000864209D3606B006880B1606BC068C56871
:10472000686886420DD2A0622068C06A00EB8001F2
:1047300058F821000128CAD90127C8E74FF0FF30F7
:10474000F1E7281DFFF7F4F9A86A18B105F1180080
:10475000FFF7EEF9E86A01212269814011432161E6
:1047600000EB800108EB8100291DFFF719FAE86AC8
:104770002168C96A8842CDD30127CBE74C000020CD
:104780001405002070B504004FF0000140D0214D09
:104790002868844207D0502080F31188BFF34F8FE0
:1047A000BFF36F8FFEE7206D38B1401E2065E36CCC
:1047B000E26A9A422CD040B12AE0502080F311885E
:1047C000BFF34F8FBFF36F8FFEE7201DFFF7B0F9E8
:1047D000114A012150B9E06A00EB800352F82330FE
:1047E00023B92B6901FA00F083432B61E06CE0628E
:1047F000C0F10A00A061E06A2B6981401943296178
:1048000000EB800002EB8000211DFFF7C9F90121B8
:10481000084670BD4C000020140500202DE9F04131
:10482000C068C468A4B104F118000746FFF780F916
:10483000174D286B012698B139461648FFF7B0F995
:10484000E06A2968C96A88421BD90124EE6119E02F
:10485000502080F31188BFF34F8FBFF36F8FFEE7B7
:10486000201DFFF765F9E16A2A6906FA01F0104395
:10487000286101EB81000749F03901EB8000211D1F
:10488000DCE70024FFF714F82046BDE8F0810000C3
:104890004C000020040600202DE9F0472C4D002498
:1048A0002746286B38B1FFF787F9286B401E28632D
:1048B000286B40B146E0502080F31188BFF34F8F42
:1048C000BFF36F8FFEE7A968224E0120D1B3A6F196
:1048D000F00980463068E8B1F068C46804F1180057
:1048E000FFF726F9201DFFF723F9E06A2A6908FA85
:1048F00000F11143296100EB800109EB8100211DCA
:10490000FFF74EF9E06A2968C96A8842E2D3C5F820
:104910001C80DFE70CB1FEF7CBFFAC6944B1464623
:10492000FFF7CCFE00B1EE61641EF9D10020A86152
:10493000E86938B10849012738070860BFF34F8F8D
:10494000BFF36F8FFFF758F93846BDE8F0870000D6
:104950004C0000200406002004ED00E02DE9F047A3
:104960000746994616460D462C20DDF820A0FFF795
:1049700055F804000ED0B8464F46D1466DB1FEF74B
:104980002DFD04F11801C4F8008081E8E002201D2B
:10499000FFF7EBF82046BDE8F087502080F3118840
:1049A000BFF34F8FBFF36F8FFEE700001CB5FEF71C
:1049B00015FD0D48006868B10B490520091DCDE9BA
:1049C000000100234FF4006208A10A48FFF736FEF9
:1049D000002807D1502080F31188BFF34F8FBFF319
:1049E0006F8FFEE71CBD000088000020546D722010
:1049F000537663008D390008FEB51E46134602004B
:104A0000089D4FF0000014D0124C2768002F0FD0E3
:104A1000CDE900130292062915DAFFF73BFE0228C2
:104A20004FF000030DD0002269462068FFF7C2FC5A
:104A3000FEBD502080F31188BFF34F8FBFF36F8FFF
:104A4000FEE72A46F0E70023324669463846FFF77C
:104A500061FDFEBD88000020030400080504000875
:104A600007040008432900081000000002000000AD
:104A7000B04A0008492900080000000000000000BA
:104A800000040000B84A000895290008FDFF000056
:104A90000000000000010000000000000000000015
:104AA00001020304060708090000000001020304D4
:104AB0004455545461736B004C6967687454617356
:104AC0006B000000E44A000800000020D000000055
:104AD000C42F0008B44B0008D000002098590000F3
:104AE000D42F0008000000000000000000000000BB
:104AF00000000000000000000000000000000000B6
:104B000000000000000000000000000000000000A5
:104B10000000000000000000000000000000000095
:104B200001000000100000000000000000A24A0484
:104B30000000000000000000000000000000000075
:104B40000000000000000000000000000000000065
:104B50000000000000000000000000000000000055
:104B60000000000000000000000000000000000045
:104B70000000000000000000000000000000000035
:104B80000000000000000000000000000000000025
:104B9000000000000000000000000000AAAAAAAA6D
:104BA0000000000000000000000000000000000005
:044BB0000000000001
:0400000508000131BD
:00000001FF
